:020000040800F2
:1000000000000320012900085D2800086528000879
:100010006D280008752800087D28000800000000F1
:10002000000000000000000000000000852800081B
:100030009328000800000000A1280008AF2800084D
:1000400051290008512900085129000851290008A8
:100050005129000851290008BB280008512900082F
:100060005129000851290008512900085129000888
:100070005129000851290008512900085129000878
:100080005129000851290008512900085129000868
:100090005129000851290008512900085129000858
:1000A0005129000851290008512900085129000848
:1000B00051290008C92800085129000851290008C1
:1000C0005129000851290008512900085129000828
:1000D0005129000851290008512900085129000818
:1000E0005129000851290008512900085129000808
:1000F00051290008512900085129000851290008F8
:1001000051290008512900085129000851290008E7
:1001100051290008512900085129000851290008D7
:1001200051290008512900085129000851290008C7
:1001300051290008512900085129000851290008B7
:1001400051290008512900085129000851290008A7
:100150005129000851290008512900085129000897
:100160005129000851290008512900085129000887
:1001700051290008512900085129000800000000F9
:100180005129000851290008512900085129000867
:100190005129000851290008512900085129000857
:0C01A000512900085129000851290008CD
:1001AC0010B5054C237833B9044B13B10448AFF3A5
:1001BC0000800123237010BD2400002000000000EB
:1001CC002C5B000808B5034B1BB103490348AFF384
:1001DC00008008BD00000000280000202C5B0008F7
:1001EC0053B94AB9002908BF00281CBF4FF0FF3192
:1001FC004FF0FF3000F06AB9ADF1080C6DE904CE98
:10020C0000F006F8DDF804E0DDE9022304B07047E5
:10021C002DE9F047089D0C46002B4ED194468C4599
:10022C008646B2FA82F262D94AB1C2F120039140F9
:10023C0020FA03F30CFA02FC194300FA02FE4FEA0F
:10024C001C471FFA8CF6B1FBF7F44FEA1E4307FB71
:10025C00141143EA014304FB06F199420AD91CEB41
:10026C00030304F1FF3080F01281994240F20F81B8
:10027C00023C6344591A1FFA8EF3B1FBF7F007FBEB
:10028C00101143EA014300FB06F69E420AD91CEB0F
:10029C00030300F1FF3180F0FC809E4240F2F980B4
:1002AC00634402389B1B40EA044000211DB1D3403B
:1002BC000022C5E90032BDE8F0878B4205D90DB1AB
:1002CC00C5E9000100210846F5E7B3FA83F10029DE
:1002DC0046D1A34202D39042C0F0F080861A64EB60
:1002EC0003030120002DE6D0C5E90063E3E7002AF3
:1002FC0040F09080A1EB0C044FEA1C481FFA8CF7DD
:10030C000121B4FBF8F64FEA1E4308FB164443EAFE
:10031C00044307FB06F0984208D91CEB030306F1D3
:10032C00FF3402D2984200F2CD8026461C1A1FFAE6
:10033C008EF3B4FBF8F008FB104443EA044300FBD3
:10034C0007F79F4208D91CEB030300F1FF3402D2DC
:10035C009F4200F2B0802046DB1B40EA0640A5E736
:10036C00C1F120068B4022FA06F71F4320FA06FC47
:10037C0004FA01F343EA0C03F44000FA01F8380CD8
:10038C004FEA1349B4FBF0FE1FFA87FC00FB1E4436
:10039C0049EA04440EFB0CF9A14502FA01F20AD910
:1003AC003C190EF1FF3A80F08480A14540F2818027
:1003BC00AEF1020E3C44A4EB09041FFA83F9B4FB22
:1003CC00F0F300FB134449EA044403FB0CFCA44582
:1003DC0007D93C1903F1FF3067D2A44565D9023B1C
:1003EC003C4443EA0E40A0FB0293A4EB0C049C4259
:1003FC00CE469C4651D34ED055B1B8EB0E0364EBB0
:10040C000C0404FA06F6CB401E43CC40C5E900644C
:10041C00002150E7C2F1200320FA03F10CFA02FC90
:10042C0024FA03F394400C434FEA1C4800FA02FEF2
:10043C001FFA8CF7B3FBF8F008FB1031230C43EADE
:10044C00014300FB07F1994208D91CEB030300F1AF
:10045C00FF362CD299422AD9023863445B1AA4B2D3
:10046C00B3FBF8F108FB113344EA034401FB07F337
:10047C00A34208D91CEB040401F1FF3613D2A342AA
:10048C0011D902396444E41A41EA004139E70446BF
:10049C00F0E6084606E7C845AED2B9EB020E63EBB0
:1004AC00070C0138A8E73146EDE7034699E73046DB
:1004BC00D4E7D6467FE7634402384DE70646234629
:1004CC0008460FE7023E634430E700BF704700BFA9
:1004DC0080B582B000AF786001220421A94802F0F7
:1004EC006FFEA94A7B681046194658231A4605F038
:1004FC0009FB01224FF48051A44802F061FE012057
:10050C0000F062F9A24800F04DF9CB2000F05CF944
:10051C00392000F07BF92C2000F078F9002000F055
:10052C0075F9342000F072F9022000F06FF9CF2039
:10053C0000F04AF9002000F069F9C12000F066F9DA
:10054C00302000F063F9E82000F03EF9852000F03F
:10055C005DF9002000F05AF9782000F057F9EA20F4
:10056C0000F032F9002000F051F9002000F04EF9B3
:10057C00ED2000F029F9642000F048F9032000F088
:10058C0045F9122000F042F9812000F03FF9F720E4
:10059C0000F01AF9202000F039F9C02000F014F90D
:1005AC00232000F033F9C12000F00EF9102000F0E8
:1005BC002DF9C52000F008F93E2000F027F928207D
:1005CC0000F024F9C72000F0FFF8862000F01EF997
:1005DC00362000F0F9F8482000F018F93A2000F025
:1005EC00F3F8552000F012F9B12000F0EDF80020DE
:1005FC0000F00CF9182000F009F9B62000F0E4F82E
:10060C00082000F003F9822000F000F9272000F008
:10061C00FDF8F22000F0D8F8002000F0F7F82A20BE
:10062C0000F0D2F8002000F0F1F8002000F0EEF815
:10063C00002000F0EBF8EF2000F0E8F82B2000F0A1
:10064C00C3F8002000F0E2F8002000F0DFF80120F1
:10065C0000F0DCF83F2000F0D9F8262000F0B4F8C8
:10066C00012000F0D3F8E02000F0AEF80F2000F0ED
:10067C00CDF8312000F0CAF82B2000F0C7F80C2080
:10068C0000F0C4F80E2000F0C1F8082000F0BEF80D
:10069C004E2000F0BBF8F12000F0B8F8372000F045
:1006AC00B5F8072000F0B2F8102000F0AFF80320E6
:1006BC0000F0ACF80E2000F0A9F8092000F0A6F824
:1006CC00002000F0A3F8E12000F07EF8002000F0FC
:1006DC009DF80E2000F09AF8142000F097F80320F3
:1006EC0000F094F8112000F091F8072000F08EF83B
:1006FC00312000F08BF8C12000F088F8482000F081
:10070C0085F8082000F082F80F2000F07FF80C200C
:10071C0000F07CF8312000F079F8362000F076F803
:10072C000F2000F073F8F62000F04EF8002000F0D7
:10073C006DF8002000F06AF8002000F067F8112036
:10074C0000F042F8134800F02DF8292000F03CF896
:10075C002C2000F039F8104B00221A800E4B1A880E
:10076C000E4B1A800E4BF0221A800D4B4FF4A072D8
:10077C005A800B4B01221A7100F06EFC00BF083737
:10078C00BD4680BD0008024040010020000C024024
:10079C00400D030040420F009A01002098010020F8
:1007AC009C01002080B483B000AF786002E07B68CD
:1007BC00013B7B607B68002BF9D100BF00BF0C377D
:1007CC00BD465DF8047B704780B582B000AF034630
:1007DC00FB7100224FF400510A4802F0F1FC002298
:1007EC000421094802F0ECFCFB1D0121184600F025
:1007FC00BFF801220421044802F0E2FC00BF0837D4
:10080C00BD4680BD000C02400008024080B582B09D
:10081C0000AF0346FB7101224FF400510A4802F06D
:10082C00CFFC00220421094802F0CAFCFB1D012167
:10083C00184600F09DF801220421044802F0C0FC87
:10084C0000BF0837BD4680BD000C024000080240C6
:10085C0090B583B000AF0446084611461A462346AD
:10086C00FB800346BB800B467B8013463B802A20D3
:10087C00FFF7AAFFFB881B0A9BB2DBB21846FFF7F7
:10088C00C5FFFB88DBB21846FFF7C0FF7B881B0A4D
:10089C009BB2DBB21846FFF7B9FF7B88DBB2184678
:1008AC00FFF7B4FF2B20FFF78FFFBB881B0A9BB20F
:1008BC00DBB21846FFF7AAFFBB88DBB21846FFF77E
:1008CC00A5FF3B881B0A9BB2DBB21846FFF79EFFC5
:1008DC003B88DBB21846FFF799FF00BF0C37BD46CB
:1008EC0090BD000080B582B000AF0346FB7136208E
:1008FC00FFF76AFFFB79002B03D15820FFF786FF27
:10090C0013E0FB79012B03D18820FFF77FFF0CE06C
:10091C00FB79022B03D12820FFF778FF05E0FB7948
:10092C00032B02D1E820FFF771FFFB79002B02D0DB
:10093C00FB79012B0AD10D4BF0221A800B4B4FF493
:10094C00A0725A80094B01221A710AE0074B4FF42E
:10095C00A0721A80054BF0225A80044B00221A71A7
:10096C0000BF00BF0837BD4680BD00BF9C01002002
:10097C0080B582B000AF78600B467B807A8841F2FC
:10098C00883379680B4804F008FA0346032B06D029
:10099C00032B06DC002B06D0012B06D001E000BF98
:1009AC0004E000BF02E000BF00E000BF00BF08375A
:1009BC00BD4680BD4001002080B584B000AF78609A
:1009CC00774B1B88013B9AB2754B5B88013B9BB202
:1009DC0000210020FFF73CFF2C20FFF7F5FE012241
:1009EC004FF400516F4802F0EBFB002204216E48DB
:1009FC0002F0E6FB6D4B93F85130DBB2012B40F06B
:100A0C0010836A4B93F85030012B01D1022314E36D
:100A1C00664B012283F85020644B032283F851204B
:100A2C00624B00225A65614B00225A645F4B0022D4
:100A3C001A645E4B00229A875C4B0022DA875B4B70
:100A4C009B6AB3F5005F0FD1584B1B681A68574B64
:100A5C001B6822F400521A60544B1B681A68534BE3
:100A6C001B6842F400521A60504B9B68B3F5004F60
:100A7C0007D14E4B1B681A684C4B1B6842F48042E2
:100A8C001A604A4B1B681B6803F04003402B07D0CD
:100A9C00464B1B681A68454B1B6842F040021A60B3
:100AAC000023FB60BCE1FB689B007A6813441B6865
:100ABC003F4A13603E4B1B681B0ADAB23D4B1A705F
:100ACC003C4B1A78394B1B68DA6001F0A3FF0346E4
:100ADC00394A13604CE0394B1B68B3F1FF3F47D0E8
:100AEC00364B1B68002B09D001F094FF0246324BA9
:100AFC001B68D21A314B1B689A4239D92B4B1B6895
:100B0C005A682A4B1B6822F0E0025A60274B1B687C
:100B1C001A68264B1B6822F040021A60234B9B6A12
:100B2C00B3F5005F0FD1214B1B681A681F4B1B6874
:100B3C0022F400521A601D4B1B681A681B4B1B6871
:100B4C0042F400521A60194B012283F85120174BC2
:100B5C00002283F8502001220421134802F030FBBC
:100B6C0000224FF400510F4802F02AFB032364E2E9
:100B7C000E4B1B689B6803F00203022BABD10C4B92
:100B8C001B68DAB20B4B1A700A4B1A78074B1B68AE
:100B9C00DA6001F03FFF0346074A13605DE000BFD7
:100BAC009C010020000C0240000802404001002083
:100BBC0034010020380100203C01002008000020F6
:100BCC008B4B1B68B3F1FF3F47D0894B1B68002B45
:100BDC0009D001F01FFF0246864B1B68D21A844BCA
:100BEC001B689A4239D9844B1B685A68824B1B6824
:100BFC0022F0E0025A60804B1B681A687E4B1B681F
:100C0C0022F040021A607C4B9B6AB3F5005F0FD157
:100C1C00794B1B681A68784B1B6822F400521A60D7
:100C2C00754B1B681A68744B1B6842F400521A60AF
:100C3C00714B012283F851206F4B002283F8502016
:100C4C00012204216D4802F0BBFA00224FF400513E
:100C5C006B4802F0B5FA0323EFE1674B1B689B6806
:100C6C0003F00203022BABD1664B1B681B0EDAB2EE
:100C7C00654B1A70644B1A785F4B1B68DA6001F095
:100C8C00C9FE03465B4A13604CE0594B1B68B3F139
:100C9C00FF3F47D0564B1B68002B09D001F0BAFE22
:100CAC000246544B1B68D21A514B1B689A4239D9D5
:100CBC00514B1B685A68504B1B6822F0E0025A607B
:100CCC004D4B1B681A684C4B1B6822F040021A6093
:100CDC00494B9B6AB3F5005F0FD1474B1B681A68F1
:100CEC00454B1B6822F400521A60434B1B681A6870
:100CFC00414B1B6842F400521A603F4B012283F8AF
:100D0C0051203D4B002283F85020012204213B4806
:100D1C0002F056FA00224FF40051394802F050FA12
:100D2C0003238AE1344B1B689B6803F00203022BFC
:100D3C00ABD1344B1B681B0CDAB2334B1A70324BF1
:100D4C001A782D4B1B68DA6001F064FE0346294AC1
:100D5C0013605BE0264B1B68B3F1FF3F56D0244B6E
:100D6C001B68002B09D001F055FE0246214B1B6875
:100D7C00D21A1F4B1B689A4248D91F4B1B685A68E2
:100D8C001D4B1B6822F0E0025A601B4B1B681A6853
:100D9C00194B1B6822F040021A60174B9B6AB3F583
:100DAC00005F0FD1144B1B681A68134B1B6822F49D
:100DBC0000521A60104B1B681A680F4B1B6842F4E8
:100DCC0000521A600C4B012283F851200A4B00226E
:100DDC0083F8502001220421084802F0F1F9002286
:100DEC004FF40051064802F0EBF9032325E100BF54
:100DFC00080000203C0100204001002000080240B7
:100E0C00000C024034010020380100208D4B1B687F
:100E1C009B6803F00203022B9CD1FB680133FB603F
:100E2C00FB68B3F5164FFFF43EAE00224FF40051B1
:100E3C00854802F0C5F901220421844802F0C0F96A
:100E4C00804B9B6AB3F5005F07D17E4B1B681A6819
:100E5C007C4B1B6842F480521A6001F0DBFD0346A8
:100E6C007B4A136052E07B4B1B68B3F1FF3F4DD0C4
:100E7C00784B1B68002B09D001F0CCFD0246744B5B
:100E8C001B68D21A734B1B689A423FD96D4B1B6877
:100E9C005A686C4B1B6822F0E0025A60694B1B6865
:100EAC001A68684B1B6822F040021A60654B9B6AFB
:100EBC00B3F5005F0FD1634B1B681A68614B1B685D
:100ECC0022F400521A605F4B1B681A685D4B1B685A
:100EDC0042F400521A605B4B012283F85120594BAB
:100EEC005B6D43F02003574A5365564B002283F841
:100EFC00502000224FF40051534802F061F90122B6
:100F0C000421524802F05CF9032396E04D4B1B6818
:100F1C009B6803F00203022BA5D101F07BFD034675
:100F2C004B4A136052E04B4B1B68B3F1FF3F4DD063
:100F3C00484B1B68002B09D001F06CFD0246444B5A
:100F4C001B68D21A434B1B689A423FD93D4B1B6816
:100F5C005A683C4B1B6822F0E0025A60394B1B6804
:100F6C001A68384B1B6822F040021A60354B9B6A9A
:100F7C00B3F5005F0FD1334B1B681A68314B1B68FC
:100F8C0022F400521A602F4B1B681A682D4B1B68F9
:100F9C0042F400521A602B4B012283F85120294B4A
:100FAC005B6D43F02003274A5365264B002283F8E0
:100FBC00502000224FF40051234802F001F9012285
:100FCC000421224802F0FCF8032336E01D4B1B6879
:100FDC009B6803F08003802BA5D01A4B9B68002BD9
:100FEC000AD10023BB60174B1B68DB68BB60154B39
:100FFC001B689B68BB60BB68124B012283F85120B5
:10100C00104B002283F8502000224FF400510E4860
:10101C0002F0D6F8012204210C4802F0D1F800238A
:10102C000BE000224FF40051074802F0C9F80122EE
:10103C000421064802F0C4F8022318461037BD46B6
:10104C0080BD00BF40010020000C0240000802409F
:10105C003C0100200800002080B500AF054803F0DB
:10106C0074FE044B0022DA61024803F0E5FD00BF78
:10107C0080BD00BF4001002080B48BB000AF7B600E
:10108C000346FB810B46BB8113467B81BB893B62CC
:10109C00FB89FB613A6A13469B0013449B011A4679
:1010AC00FB6913443B623B6A5B08BB61BB695B0039
:1010BC007B613A6A7B69D31A7B61BB699B007A6856
:1010CC0013441B687B627B89FB617B69002B08D016
:1010DC007B6A9BB27B62FB691B047A6A13437B625B
:1010EC0007E07B6A1B0C1B047B627A6AFB69134367
:1010FC007B62BB699B007A6813447A6A1A6000BFF2
:10110C002C37BD465DF8047B7047000080B588B075
:10111C0000AF7B600346FB810B46BB811346FB7221
:10112C00334AFB891380334ABB891380304B1B88AD
:10113C001A467B681B7813442F4A128893420BDDA6
:10114C007B685B781A462B4B1B8813449AB2294B4D
:10115C001A80274B00221A800023FB6135E07B6844
:10116C005A68FB7A203B7968497801FB03F31946EE
:10117C00FB690B445B0013441B887B610023BB6140
:10118C001AE07A69BB6902FA03F303F40043002BFB
:10119C000FD0BB699AB2164B1B88134498B2FB69EB
:1011AC009AB2144B1B88134499B23A8DFB6AFFF721
:1011BC0063FFBB690133BB617B681B781A46BB6953
:1011CC009342DED3FB690133FB617B685B781A4683
:1011DC00FB699342C3D37B681B781A46044B1B886C
:1011EC0013449AB2024B1A8000BF2037BD4680BD13
:1011FC00980100209A0100209C01002080B588B045
:10120C0002AFBA607B600346FB810B46BB81FB8956
:10121C00FB82244AFB891380234ABB89138038E064
:10122C00BB681B780A2B1DD17B685B781A461E4B5A
:10123C001B8813449BB201339AB21B4B1A80BB68B8
:10124C0001331B780D2B06D1164B00221A80BB687C
:10125C000133BB6002E0134AFB8A1380BB68013385
:10126C00BB6016E0BB681B780D2B03D1BB68013348
:10127C00BB600EE00B4B18880B4B1988BB685A1CD3
:10128C00BA601A787B6A01933B8C00937B68FFF7FA
:10129C003DFFBB681B78002BC2D100BF00BF1837C5
:1012AC00BD4680BD980100209A01002090B587B002
:1012BC0000AF0446084611461A462346FB800346F7
:1012CC00BB800B467B8013463B80504B1B88FA88B7
:1012DC009A4203D34D4B1B88013BFB804B4B1B8825
:1012EC007A889A4203D3494B1B88013B7B80474B3E
:1012FC005B88BA889A4203D3444B5B88013BBB8022
:10130C00424B5B883A889A4203D3404B5B88013B43
:10131C003B80FA887B889A4205D27A88FB88D31A5C
:10132C009BB21BB204E0FA887B88D31A9BB21BB227
:10133C00BB82BA883B889A4205D23A88BB88D31ABA
:10134C009BB21BB204E0BA883B88D31A9BB21BB287
:10135C007B82FA887B889A4201D2012301E04FF00C
:10136C00FF333B82BA883B889A4201D2012301E0C9
:10137C004FF0FF33FB81B7F91420B7F912309A42C2
:10138C0006DDB7F91430DA0F13445B101BB206E01C
:10139C00B7F91230DA0F13445B105B421BB2FB82BD
:1013AC003A8DB988F888FB6AFFF766FEFA887B8865
:1013BC009A4203D1BA883B889A4221D0FB8ABB81DE
:1013CC00B7F90C20B7F914305B429A4208DDFA8A5F
:1013DC007B8AD31A9BB2FB823A8AFB881344FB802C
:1013EC00B7F90C20B7F912309A42D9DAFA8ABB8ACB
:1013FC0013449BB2FB82FA89BB881344BB80CFE7B2
:10140C0000BF00BF1C37BD4690BD00BF9C01002033
:10141C0090B585B002AF0446084611461A462346DD
:10142C00FB800346BB800B467B8013463B800DE064
:10143C003C88FA88B988F888FB6901933B8B009348
:10144C002346FFF733FFFB880133FB80FA887B8848
:10145C009A42EDD300BF00BF0C37BD4690BD0000D3
:10146C0080B582B000AF0023FB80002000F0A2F911
:10147C000346FB80FB881B02FB80012000F09AF9DD
:10148C0003469AB2FB881343FB80FB8840F611029B
:10149C00934201D0012348E000F027F901210120FB
:1014AC0000F033F90121022000F02FF9492120200E
:1014BC0000F0C4F9C820FFF775F90121212000F0D4
:1014CC00BDF900211E2000F04AF99A21412000F0BC
:1014DC00B5F901214A2000F0B1F901214B2000F0AF
:1014EC00ADF900214B2000F0A9F90121562000F0A4
:1014FC00A5F90121582000F0A1F90321402000F0AA
:10150C009DF9FF210B2000F099F90A4B0022DA809B
:10151C00084BDA88074B9A80064B9A88054B5A8001
:10152C00044B5A88034B1A80002318460837BD46D3
:10153C0080BD00BFA401002080B584B000AF402066
:10154C0000F038F9034603F080039AB22B4B1A8053
:10155C002A4B1B88002B34D00123FB600123BB607A
:10156C0000F052F80346FB6000F082F80346BB60C3
:10157C00234B1B68FA689A4204D9214B1B68FA6802
:10158C00D31A03E01E4B1A68FB68D31A7B601D4B01
:10159C001B68BA689A4204D91A4B1B68BA68D31AEA
:1015AC0003E0184B1A68BB68D31A3B607A683B6837
:1015BC001344052B05D9124AFB681360114ABB680A
:1015CC0013600F4B1B689AB20C4B5A800D4B1B6867
:1015DC009AB20A4B9A8000F075F803461A46074BEC
:1015EC00DA8001214B2000F029F900214B2000F07A
:1015FC0025F9024B18461037BD4680BDA4010020CA
:10160C00C0590220C459022080B582B000AF4D20D1
:10161C0000F042F903467B607B6840F6B832934297
:10162C0005DC7B68C3F571630E337B6004E07B687B
:10163C00C3F56D6308337B607B680C4A82FB031235
:10164C001A44D210DB17D31A3B603B68002B02DC28
:10165C0000233B6004E03B68F02B01DDEF233B6093
:10166C003B689BB218460837BD4680BD8988888880
:10167C0080B582B000AF4F2000F00EF903463B60FE
:10168C003B68A3F5B4733B603B680D4A82FB0312C5
:10169C005210DB17D31A7B607B68002B02DC002313
:1016AC007B6006E07B68B3F5A07F02DD40F23F1360
:1016BC007B607B689BB218460837BD4680BD00BF77
:1016CC00E9A28B2E80B582B000AF512000F0E4F877
:1016DC0003467B607B68002B01D100237B607B6819
:1016EC009BB218460837BD4680BD80B500AF0221BD
:1016FC00032000F0A3F80220FFF754F80021032088
:10170C0000F09CF80023184680BD80B584B000AF73
:10171C0003460A46FB711346BB710023FB7304207E
:10172C0000F048F80346FB73BB79002B09D097F9FE
:10173C000730DB435AB297F90F3013405BB2FB739F
:10174C0003E0FA7BFB791343FB73FB7B1946042004
:10175C0000F074F8002318461037BD4680BD80B5E4
:10176C0084B000AF03460A46FB711346BB710023DD
:10177C00FB73172000F01EF80346FB73BB79002B9C
:10178C0004D0FA7BFB791343FB7308E097F907301D
:10179C00DB435AB297F90F3013405BB2FB73FB7B00
:1017AC001946172000F04AF8002318461037BD469A
:1017BC0080BD000080B586B002AF0346FB710023EC
:1017CC00FB73FB793B73FB797B7372B600BF82238F
:1017DC00BB73BB7B23F00103BB73BB7B99B207F1DB
:1017EC000C024FF47A7300930123134801F084FE2A
:1017FC000346002B01D0AA231AE08223BB73BB7BC8
:10180C0043F00103BB73BB7B99B207F10C024FF49D
:10181C007A7300930123084801F06CFF0346002BF8
:10182C0001D0AA2304E03B7BFB7362B600BFFB7BB9
:10183C0018461037BD4680BD4000002080B586B0EC
:10184C0002AF03460A46FB711346BB71FB793B732F
:10185C00BB797B7372B600BF8223FB73FB7B23F0D7
:10186C000103FB73FB7B99B207F10C024FF47A7303
:10187C0000930223074801F03FFE0346002B01D0E2
:10188C00012302E062B600BF002318461037BD46A4
:10189C0080BD00BF4000002080B586B002AF7860EC
:1018AC007B68DBB23B737B68DBB27B737B68DBB240
:1018BC003B727B68DBB27B7272B600BF8223FB7318
:1018CC00FB7B23F00103FB73FB7B99B207F108024E
:1018DC004FF47A73009301231E4801F00DFE03466A
:1018EC00002B01D0AA2330E08223FB73FB7B43F057
:1018FC000103FB73FB7B99B207F10C035A1C4FF4E9
:10190C007A7300930123134801F0F4FE0346002B75
:10191C0001D0AA2319E0FB7B99B207F10C024FF41A
:10192C007A73009301230B4801F0E4FE0346002B6D
:10193C0001D0AA2309E062B600BF3B7B1AB27B7BC5
:10194C001B021BB213431BB29BB218461037BD4689
:10195C0080BD00BF4000002090B585B002AF78601C
:10196C004FF400518C4801F044FC8C4B1B88002B2D
:10197C0000F0C1818A4B1B88002B40F08580894B7D
:10198C001B88E02B7DD8884B1B8801339AB2864B81
:10199C001A80844B1B880F3B99B2824B1B88053BEA
:1019AC009BB2824A01920022009214220020FFF77F
:1019BC002FFD7C4B1B88053B99B27A4B1B8805335A
:1019CC009BB27A4A0192002200921E220A20FFF753
:1019DC001FFD744B1B88053399B2724B1B880F3358
:1019EC009BB2724A01920022009214220020FFF74F
:1019FC000FFD6D4B1B880F3B99B26B4B1B88053B46
:101A0C009BB26A4A01924FF4784200921422002051
:101A1C00FFF7FEFC644B1B88053B99B2624B1B889D
:101A2C0005339BB2614A01924FF4784200921E2218
:101A3C000A20FFF7EDFC5C4B1B88053B99B25A4B17
:101A4C001B8805339BB2594A0192002200920A224C
:101A5C000020FFF7DDFC544B1B88053399B2524B29
:101A6C001B880F339BB2514A01924FF4784200927B
:101A7C0014220020FFF7CCFC4B4B1A88494B1A80E0
:101A8C0002E0474B01221A80454B1B88012B40F08A
:101A9C009280444B1B880F2B40F28A80424B1B8850
:101AAC00013B9AB2404B1A803E4B1B880F3B99B2BC
:101ABC003C4B1B88053B9BB23C4A01920022009296
:101ACC0014220020FFF7A4FC364B1B88053B99B26F
:101ADC00344B1B8805339BB2344A0192002200928E
:101AEC001E220A20FFF794FC2E4B1B88053399B25B
:101AFC002C4B1B880F339BB22C4A01920022009274
:101B0C0014220020FFF784FC274B1B880F3B99B253
:101B1C00254B1B88053B9BB2244A01924FF478421B
:101B2C00009214220020FFF773FC1F4B1B88053B0F
:101B3C0099B21D4B1B8805339BB21C4A01924FF482
:101B4C00784200921E220A20FFF762FC164B1B887B
:101B5C00053B99B2144B1B8805339BB2134A019277
:101B6C00002200920A220020FFF752FC0E4B1B8829
:101B7C00053399B20C4B1B880F339BB20B4A019265
:101B8C004FF47842009214220020FFF741FC064BE0
:101B9C001A88044B1A800EE0001802401400002032
:101BAC00B45902201200002010000020AC010020CB
:101BBC00534B00221A80534BB3F90030012B40F0E9
:101BCC009A80514BB3F900309BB2013B9BB21AB2D5
:101BDC004D4B1A804C4BB3F90030012B74DD4B4B41
:101BEC00B3F9003098B24A4BB3F900309BB2053BC5
:101BFC0099B2464BB3F900309BB214339AB2444BB2
:101C0C00B3F900309BB205339BB2424C01940024D3
:101C1C000094FFF7FDFB3C4BB3F9003098B23C4B02
:101C2C00B3F900309BB2053B99B2374BB3F9003096
:101C3C009BB214339AB2364BB3F900309BB20533D6
:101C4C009BB2344C01944FF6E0740094FFF7E0FB28
:101C5C002D4BB3F900202D4B1A802B4BB3F90030D0
:101C6C000F2B48D12C4B1B88133B294AB2F900206F
:101C7C00934240DC284B1B881333254AB2F90020D1
:101C8C00934238DB254B1B88013B9AB2234B1A80BD
:101C9C00224B1B88C3F105039BB21A469202D21A3F
:101CAC0092001A44D200D31A5B009BB203F21D13AC
:101CBC0098B2184B0193002300930E234FF48E72AD
:101CCC000021FFF7A5FB16E0114BB3F900309BB2D6
:101CDC00053B99B20E4BB3F900309BB205339BB266
:101CEC000C4A01920022009215220020FFF790FB73
:101CFC00044B00221A8000BF0C37BD4690BD00BFBC
:101D0C00B4590220BC590220B6590220BA590220FB
:101D1C00B8590220AC010020100000201400002053
:101D2C0080B582B002AF00F00FFE00F05BFA00F05D
:101D3C008DFB00F0C7FA00F005FB00F039FB002228
:101D4C004FF48041164801F03BFA00224FF4005149
:101D5C00134801F035FA1348FEF7BAFB0320FEF7DF
:101D6C00C1FDFFF77DFB0346002B23D00E4B0193E7
:101D7C004FF6FF730093F0234FF4A0720021002064
:101D8C00FFF746FB084B01934FF478430093074B46
:101D9C00074A0A210A20FFF731FA00BFFDE700BF0E
:101DAC000018024094000020AC010020000000202C
:101DBC00445B0008A94B019300230093F0234FF4DC
:101DCC00A07200210020FFF723FBA44B01934FF6D8
:101DDC00FF730093F023B422DC218C20FFF718FB57
:101DEC009E4B01934FF4784300930F2340F21D1246
:101DFC0000212320FFF70CFB994B1B88193B99B250
:101E0C00974B1B880F3B9BB2944A01921F22009266
:101E1C004FF4A0724FF49B70FFF7FAFA904B1B88AB
:101E2C000F3B99B28E4B1B88053B9BB28B4A0192A0
:101E3C001F2200924FF4A0724FF49670FFF7E8FA4D
:101E4C00874B1B88053B99B2854B1B8805339BB28E
:101E5C00824A01921F2200924FF49B724FF49170B0
:101E6C00FFF7D6FA7E4B1B88053399B27C4B1B8847
:101E7C000F339BB2794A01921F2200924FF4A07249
:101E8C004FF49670FFF7C4FA754B1B880F3399B259
:101E9C00734B1B8819339BB2704A01921F2200921C
:101EAC004FF4A0724FF49B70FFF7B2FA6B48FEF739
:101EBC0083FD6C4803F0C8F9FFF73EFB6A4B1B88A7
:101ECC00002B00F02E81684B5B88EE2B00F22981F1
:101EDC00654B9B88012B40F22481634B9A88634BA2
:101EEC001A80614B5B88C3F1F0039AB2604B1A8085
:101EFC005E4B1B88C82B40F2E7805D4B1B88192B6F
:101F0C0040F2E2805A4B1B88D62B00F2DD80584BF6
:101F1C001A88534B1A80574B1B88193B99B2554B57
:101F2C001B880F3B9BB24D4A0192002200924FF44A
:101F3C00A0724FF49B70FFF76BFA4E4B1B880F3B54
:101F4C0099B24C4B1B88053B9BB2444A0192002230
:101F5C0000924FF4A0724FF49670FFF759FA454B6C
:101F6C001B88053B99B2434B1B8805339BB23B4AFC
:101F7C000192002200924FF49B724FF49170FFF784
:101F8C0047FA3C4B1B88053399B23A4B1B880F33ED
:101F9C009BB2324A0192002200924FF4A0724FF48D
:101FAC009670FFF735FA334B1B880F3399B2314BD0
:101FBC001B8819339BB2294A0192002200924FF4DC
:101FCC00A0724FF49B70FFF723FA254B1B88193B2B
:101FDC0099B2234B1B880F3B9BB2204A01921F22C4
:101FEC0000924FF4A0724FF49B70FFF711FA1C4B48
:101FFC001B880F3B99B21A4B1B88053B9BB2174AA7
:10200C0001921F2200924FF4A0724FF49670FFF7CA
:10201C00FFF9134B1B88053B99B2114B1B880533F9
:10202C009BB20E4A01921F2200924FF49B724FF406
:10203C009170FFF7EDF90A4B1B88053B99B2084BE1
:10204C001B8805339BB2054A0192002200924FF483
:10205C00A0724FF49B70FFF7DBF90DE0AC01002090
:10206C000C000020EC000020A4010020B05902203C
:10207C00B25902200E000020434B1B88053399B245
:10208C00414B1B880F339BB2404A01921F22009296
:10209C004FF4A0724FF49670FFF7BAF93A4B1B88C5
:1020AC000F3399B2384B1B8819339BB2374A0192C4
:1020BC001F2200924FF4A0724FF49B70FFF7A8F907
:1020CC00314B1A88324B1A80324B1B888C2B20D9FF
:1020DC00304B1B88B32B1CD82F4B1B88DC2B18D9EF
:1020EC002D4B1B88EF2B14D82C4B01221A80284B1C
:1020FC001B881AB22A4B1A802A4B4FF48C721A8006
:10210C00284BB3F900309BB201339BB21AB2264B69
:10211C001A80204B1A88254B1A801F4B1A88244B87
:10212C001A80244B1B88002B29D1184B01930023B8
:10213C0000931E231E2200210020FFF769F9134B88
:10214C00019300230093DC238C2210210020FFF745
:10215C005FF90E48FEF730FC052000F031F80B4B10
:10216C0001934FF4FC630093134B144A78218A209B
:10217C00FFF744F80548FEF71FFC00BFFDE70348D6
:10218C00FEF71AFC98E600BF0C000020AC01002002
:10219C000E000020B0590220B2590220BC59022076
:1021AC00B8590220B6590220BA590220AC59022063
:1021BC00AE5902201400002000000020605B0008D3
:1021CC0080B483B000AF786000BF7B685A1E7A6021
:1021DC00002BFAD100BF00BF0C37BD465DF8047B65
:1021EC007047000080B594B000AF07F12003302297
:1021FC000021184603F05AFC07F10C0300221A6068
:10220C005A609A60DA601A610023BB602B4B1B6C1E
:10221C002A4A43F080531364284B1B6C03F0805301
:10222C00BB60BB6800237B60254B1B68244A43F4CE
:10223C0040431360224B1B6803F440437B607B6874
:10224C0001233B624FF480337B620223BB634FF468
:10225C008003FB6304233B64B4237B640223BB64D1
:10226C000423FB6407F12003184602F061F80346CF
:10227C00002B01D000F0C6F902F00AF80346002B3F
:10228C0001D000F0BFF90F23FB6002233B61002358
:10229C007B614FF4A053BB614FF48053FB6107F19A
:1022AC000C030521184602F0BBFA0346002B01D0A3
:1022BC0000F0A8F900BF5037BD4680BD0038024081
:1022CC000070004080B500AF1B4B1C4A1A601A4BC3
:1022DC001B4A5A60184B00229A60174B0022DA6096
:1022EC00154B4FF480421A61134B00225A61124B6A
:1022FC0000229A61104B0022DA610F4B00221A6205
:10230C000D4800F0B5FF0346002B01D000F07AF920
:10231C000021094801F041FF0346002B01D000F0D9
:10232C0071F90021044801F074FF0346002B01D021
:10233C0000F068F900BF80BD40000020005C004048
:10234C00A086010080B500AF174B184A1A60164BD7
:10235C004FF482725A60144B00229A60124B002286
:10236C00DA60114B00221A610F4B00225A610E4B9E
:10237C004FF400729A610C4B0022DA610A4B002276
:10238C001A62094B00225A62074B00229A62064BD2
:10239C000A22DA62044802F04FFC0346002B01D0FB
:1023AC0000F030F900BF80BD9400002000500140C7
:1023BC0080B586B000AF07F1080300221A605A609E
:1023CC009A60DA603B4600221A605A601D4B1E4A26
:1023DC001A601C4B63225A601A4B00229A60194BEC
:1023EC0040F68B22DA60174B00221A61154B002243
:1023FC009A61144802F0D8FE0346002B01D000F07D
:10240C0001F94FF48053BB6007F1080319460D48DE
:10241C0003F092F80346002B01D000F0F3F80023F0
:10242C003B6000237B603B461946064803F0AEFA3E
:10243C000346002B01D000F0E5F800BF1837BD466D
:10244C0080BD00BFEC0000200004004080B58CB0C3
:10245C0000AF07F11C0300221A605A609A60DA6020
:10246C001A610023BB61614B1B6B604A43F0200374
:10247C0013635E4B1B6B03F02003BB61BB69002332
:10248C007B615A4B1B6B594A43F080031363574BC8
:10249C001B6B03F080037B617B6900233B61534B17
:1024AC001B6B524A43F004031363504B1B6B03F03A
:1024BC0004033B613B690023FB604C4B1B6B4B4A99
:1024CC0043F001031363494B1B6B03F00103FB60E7
:1024DC00FB680023BB60454B1B6B444A43F0020373
:1024EC001363424B1B6B03F00203BB60BB680023FE
:1024FC007B603E4B1B6B3D4A43F0080313633B4B25
:10250C001B6B03F008037B607B6800233B60374B3D
:10251C001B6B364A43F040031363344B1B6B03F0C5
:10252C0040033B603B6801220421314800F048FE27
:10253C0000224FF440512F4800F042FE00224FF48D
:10254C00C0412D4800F03CFE0423FB6101233B629B
:10255C0000237B620223BB6207F11C03194624484B
:10256C0000F076FB0123FB614FF488133B620223DE
:10257C007B6207F11C031946204800F069FB042319
:10258C00FB6100233B6201237B6207F11C031946AC
:10259C001B4800F05DFB4FF44053FB6101233B6291
:1025AC0000237B620223BB6207F11C03194611480E
:1025BC0000F04EFB4FF4C043FB6101233B62002350
:1025CC007B620023BB6207F11C0319460A4800F02A
:1025DC003FFB00220021062000F003FB062000F048
:1025EC001CFB00BF3037BD4680BD00BF0038024029
:1025FC0000080240000C024000180240000002409B
:10260C000004024080B400AF72B600BF00BFFDE70B
:10261C0080B483B000AF00237B60104B5B6C0F4A1F
:10262C0043F4804353640D4B5B6C03F480437B6039
:10263C007B6800233B60094B1B6C084A43F08053BA
:10264C001364064B1B6C03F080533B603B6800BF6C
:10265C000C37BD465DF8047B704700BF0038024064
:10266C0080B58AB000AF786007F1140300221A60BD
:10267C005A609A60DA601A617B681B68294A934237
:10268C004BD100233B61284B1B6B274A43F00403BF
:10269C001363254B1B6B03F004033B613B69002365
:1026AC00FB60214B1B6B204A43F0010313631E4B51
:1026BC001B6B03F00103FB60FB684FF400737B6141
:1026CC001223BB610123FB6102233B6204237B6267
:1026DC0007F114031946154800F0BAFA4FF4807349
:1026EC007B611223BB610123FB6102233B62042348
:1026FC007B6207F1140319460D4800F0A9FA002378
:10270C00BB60094B1B6C084A43F400031364064B73
:10271C001B6C03F40003BB60BB6800BF2837BD46CD
:10272C0080BD00BF005C0040003802400008024041
:10273C000000024080B58AB000AF786007F1140346
:10274C0000221A605A609A60DA601A617B681B6812
:10275C00194A93422CD100233B61184B5B6C174AEE
:10276C0043F480135364154B5B6C03F480133B618F
:10277C003B690023FB60114B1B6B104A43F0200399
:10278C0013630E4B1B6B03F02003FB60FB684FF4D1
:10279C0060737B610223BB610023FB6103233B62FB
:1027AC0005237B6207F114031946054800F050FA23
:1027BC0000BF2837BD4680BD0050014000380240A4
:1027CC000014024080B582B000AF78607B681B6853
:1027DC00084A93420AD1084B5B6C074A23F48013D6
:1027EC0053644FF46071054800F0DEFB00BF0837FE
:1027FC00BD4680BD0050014000380240001402402C
:10280C0080B584B000AF78607B681B680E4A934239
:10281C0015D10023FB600D4B1B6C0C4A43F00203DB
:10282C0013640A4B1B6C03F00203FB60FB68002271
:10283C0000211D2000F0D5F91D2000F0EEF900BF9D
:10284C001037BD4680BD00BF000400400038024078
:10285C0080B400AF00BFFDE780B400AF00BFFDE760
:10286C0080B400AF00BFFDE780B400AF00BFFDE750
:10287C0080B400AF00BFFDE780B400AF00BFBD4621
:10288C005DF8047B704780B400AF00BFBD465DF8B7
:10289C00047B704780B400AF00BFBD465DF8047B7D
:1028AC00704780B500AF00F0A1F800BF80BD80B5C7
:1028BC0000AF012000F0B8FC00BF80BD80B500AFB8
:1028CC00024802F031FD00BF80BD00BFEC000020CB
:1028DC0080B400AF064BD3F88830054A43F470033C
:1028EC00C2F8883000BFBD465DF8047B704700BF5E
:1028FC0000ED00E0DFF834D00D480E490E4A0023FD
:10290C0002E0D458C4500433C4188C42F9D30B4A97
:10291C000B4C002301E013600432A242FBD3FFF7FF
:10292C00D7FF03F0CBF8FFF7FBF97047000003204B
:10293C000000002024000020FC620008240000207D
:10294C00CC590220FEE7000080B500AF0E4B1B688F
:10295C000D4A43F4007313600B4B1B680A4A43F493
:10296C0080631360084B1B68074A43F48073136041
:10297C00032000F02BF90F2000F008F8FFF748FEB9
:10298C000023184680BD00BF003C024080B582B0D9
:10299C0000AF7860124B1A68124B1B7819464FF433
:1029AC007A73B3FBF1F3B2FBF3F3184600F043F97F
:1029BC000346002B01D001230EE07B680F2B0AD8B5
:1029CC00002279684FF0FF3000F00BF9064A7B6863
:1029DC001360002300E0012318460837BD4680BD74
:1029EC0018000020200000201C00002080B400AF44
:1029FC00064B1B781A46064B1B681344044A13609B
:102A0C0000BFBD465DF8047B704700BF200000206E
:102A1C00C859022080B400AF034B1B681846BD4652
:102A2C005DF8047B704700BFC859022080B485B0A4
:102A3C0000AF78607B6803F00703FB600C4BDB682E
:102A4C00BB60BA684FF6FF031340BB60FB681A0209
:102A5C00BB68134343F0BF6343F40033BB60044AC9
:102A6C00BB68D36000BF1437BD465DF8047B70476C
:102A7C0000ED00E080B400AF044BDB681B0A03F0F0
:102A8C0007031846BD465DF8047B704700ED00E077
:102A9C0080B483B000AF0346FB7197F90730002B6D
:102AAC000BDBFB7903F01F02074997F907305B0931
:102ABC00012000FA02F241F8232000BF0C37BD467A
:102ACC005DF8047B704700BF00E100E080B483B088
:102ADC0000AF03463960FB7197F90730002B0ADB16
:102AEC003B68DAB20C4997F907301201D2B20B44A9
:102AFC0083F800230AE03B68DAB20849FB7903F05B
:102B0C000F03043B1201D2B20B441A7600BF0C37F0
:102B1C00BD465DF8047B704700E100E000ED00E08D
:102B2C0080B489B000AFF860B9607A60FB6803F0DC
:102B3C000703FB61FB69C3F10703042B28BF0423C4
:102B4C00BB61FB690433062B02D9FB69033B00E034
:102B5C0000237B614FF0FF32BB6902FA03F3DA43C7
:102B6C00BB681A407B699A404FF0FF317B6901FAD0
:102B7C0003F3D9437B680B40134318462437BD46F7
:102B8C005DF8047B7047000080B582B000AF7860C0
:102B9C007B68013BB3F1807F01D301230FE00A4A2C
:102BAC007B68013B53600F214FF0FF30FFF78EFF26
:102BBC00054B00229A60044B07221A60002318462A
:102BCC000837BD4680BD00BF10E000E080B582B084
:102BDC0000AF78607868FFF729FF00BF0837BD4663
:102BEC0080BD80B586B000AF0346B9607A60FB73D8
:102BFC0000237B61FFF73EFF78617A68B9687869DA
:102C0C00FFF78EFF024697F90F3011461846FFF773
:102C1C005DFF00BF1837BD4680BD80B582B000AFE8
:102C2C000346FB7197F907301846FFF731FF00BFD9
:102C3C000837BD4680BD80B582B000AF786078683B
:102C4C00FFF7A2FF034618460837BD4680BD0000BB
:102C5C0080B489B000AF7860396000237B610023B9
:102C6C003B610023BB610023FB6177E10122FB691F
:102C7C0002FA03F37B613B681B687A6913403B6182
:102C8C003A697B699A4240F066813B685B6803F065
:102C9C000303012B05D03B685B6803F00303022B95
:102CAC0030D17B689B68BB61FB695B00032202FA35
:102CBC0003F3DB43BA691340BB613B68DA68FB6919
:102CCC005B0002FA03F3BA691343BB617B68BA6910
:102CDC009A607B685B68BB610122FB6902FA03F3B3
:102CEC00DB43BA691340BB613B685B681B0903F0AB
:102CFC000102FB6902FA03F3BA691343BB617B68F7
:102D0C00BA695A603B685B6803F00303032B17D066
:102D1C007B68DB68BB61FB695B00032202FA03F38F
:102D2C00DB43BA691340BB613B689A68FB695B0083
:102D3C0002FA03F3BA691343BB617B68BA69DA60C0
:102D4C003B685B6803F00303022B23D1FB69DA08B1
:102D5C007B68083253F82230BB61FB6903F0070330
:102D6C009B000F2202FA03F3DB43BA691340BB61E9
:102D7C003B681A69FB6903F007039B0002FA03F333
:102D8C00BA691343BB61FB69DA087B680832B9691D
:102D9C0043F822107B681B68BB61FB695B00032254
:102DAC0002FA03F3DB43BA691340BB613B685B680F
:102DBC0003F00302FB695B0002FA03F3BA691343E5
:102DCC00BB617B68BA691A603B685B6803F440338B
:102DDC00002B00F0C0800023FB60664B5B6C654AE7
:102DEC0043F480435364634B5B6C03F48043FB609C
:102DFC00FB68614AFB699B08023352F82330BB61C4
:102E0C00FB6903F003039B000F2202FA03F3DB437D
:102E1C00BA691340BB617B68584A934237D07B68D0
:102E2C00574A934231D07B68564A93422BD07B68E9
:102E3C00554A934225D07B68544A93421FD07B68F5
:102E4C00534A934219D07B68524A934213D07B6801
:102E5C00514A93420DD07B68504A934207D07B680D
:102E6C004F4A934201D1092312E00A2310E00823B0
:102E7C000EE007230CE006230AE0052308E00423F8
:102E8C0006E0032304E0022302E0012300E0002318
:102E9C00FA6902F0030292009340BA691343BB61D2
:102EAC003549FB699B080233BA6941F823203D4B35
:102EBC009B68BB613B69DB43BA691340BB613B68F0
:102ECC005B6803F48013002B03D0BA693B6913438E
:102EDC00BB61344ABB699360324BDB68BB613B69B5
:102EEC00DB43BA691340BB613B685B6803F40013B6
:102EFC00002B03D0BA693B691343BB61294ABB69F8
:102F0C00D360284B5B68BB613B69DB43BA691340F8
:102F1C00BB613B685B6803F40033002B03D0BA69D8
:102F2C003B691343BB611F4ABB6953601D4B1B6854
:102F3C00BB613B69DB43BA691340BB613B685B68AF
:102F4C0003F48033002B03D0BA693B691343BB6194
:102F5C00144ABB691360FB690133FB61FB690F2BDE
:102F6C007FF684AE00BF00BF2437BD465DF8047BFE
:102F7C00704700BF0038024000380140000002409A
:102F8C000004024000080240000C02400010024005
:102F9C000014024000180240001C024000200240B5
:102FAC0000240240003C014080B487B000AF786040
:102FBC00396000233B610023FB600023BB600023CE
:102FCC007B61D9E001227B6902FA03F33B613A6829
:102FDC003B691340FB60FA683B699A4240F0C98038
:102FEC006B4A7B699B08023352F82330BB607B69C8
:102FFC0003F003039B000F2202FA03F3BA68134099
:10300C00BB607B68634A934237D07B68624A9342C9
:10301C0031D07B68614A93422BD07B68604A9342E3
:10302C0025D07B685F4A93421FD07B685E4A9342EF
:10303C0019D07B685D4A934213D07B685C4A9342FB
:10304C000DD07B685B4A934207D07B685A4A934207
:10305C0001D1092312E00A2310E008230EE0072314
:10306C000CE006230AE0052308E0042306E0032312
:10307C0004E0022302E0012300E000237A6902F05D
:10308C00030292009340BA689A4232D14B4B1A68B1
:10309C00FB68DB43494913400B60484B5A68FB689B
:1030AC00DB43464913404B60444BDA68FB68DB4317
:1030BC0042491340CB60414B9A68FB68DB433F4964
:1030CC0013408B607B6903F003039B000F2202FA11
:1030DC0003F3BB602E4A7B699B08023352F8231022
:1030EC00BB68DA432A487B699B080A40023340F8E4
:1030FC0023207B681A687B695B00032101FA03F3C8
:10310C00DB431A407B681A607B69DA087B680832FB
:10311C0053F822107B6903F007039B000F2202FA7D
:10312C0003F3DB437A69D20819407B68083243F811
:10313C0022107B68DA687B695B00032101FA03F3D8
:10314C00DB431A407B68DA607B685A6801217B6933
:10315C0001FA03F3DB431A407B685A607B689A6878
:10316C007B695B00032101FA03F3DB431A407B68A4
:10317C009A607B6901337B617B690F2B7FF622AFF1
:10318C0000BF00BF1C37BD465DF8047B704700BF15
:10319C0000380140000002400004024000080240D8
:1031AC00000C0240001002400014024000180240C3
:1031BC00001C02400020024000240240003C014060
:1031CC0080B483B000AF78600B467B8013467B7075
:1031DC007B78002B03D07A887B689A6103E07B882C
:1031EC001A047B689A6100BF0C37BD465DF8047BFE
:1031FC00704780B485B000AF78600B467B807B68ED
:10320C005B69FB607A88FB6813401A04FB68D9433E
:10321C007B880B401A437B689A6100BF1437BD460C
:10322C005DF8047B7047000080B582B000AF0346A8
:10323C00FB80084B5A69FB881340002B06D0054ACB
:10324C00FB885361FB88184600F006F800BF08376E
:10325C00BD4680BD003C014080B483B000AF034646
:10326C00FB8000BF0C37BD465DF8047B7047000047
:10327C0080B584B000AF78607B68002B01D101234E
:10328C002BE17B6893F83D30DBB2002B06D17B68D9
:10329C00002283F83C207868FFF7E2F97B6824224F
:1032AC0083F83D207B681B681A687B681B6822F0DA
:1032BC0001021A607B681B681A687B681B6842F401
:1032CC0000421A607B681B681A687B681B6822F4D2
:1032DC0000421A6001F09CFCF8607B685B68814AD4
:1032EC00934207D8FB68804A934294BF0123002382
:1032FC00DBB206E0FB687D4A934294BF01230023B6
:10330C00DBB2002B01D00123E7E0FB68784AA2FB7B
:10331C0003239B0CBB607B681B685B6823F03F013D
:10332C007B681B68BA680A435A607B681B681B6A17
:10333C0023F03F017B685B686A4A934202D8BB6802
:10334C00013309E0BB684FF4967202FB03F3694A40
:10335C00A2FB03239B0901337A6812680B431362A7
:10336C007B681B68DB6923F44F4222F0FF027B6809
:10337C005B685C498B4219D8FB68591E7B685B689B
:10338C005B00B1FBF3F3591C40F6FC730B40002BB4
:10339C000AD0FB68591E7B685B685B00B1FBF3F3DA
:1033AC000133C3F30B0351E004234FE07B689B68AC
:1033BC00002B11D1FB68581E7B6859680B465B00CB
:1033CC000B44B0FBF3F30133C3F30B03002B0CBF23
:1033DC0001230023DBB212E0FB68581E7B6859689E
:1033EC000B469B000B4499000B44B0FBF3F30133E9
:1033FC00C3F30B03002B0CBF01230023DBB2002B08
:10340C0001D0012322E07B689B68002B0ED1FB6866
:10341C00581E7B6859680B465B000B44B0FBF3F3FA
:10342C000133C3F30B0343F400430FE0FB68581E56
:10343C007B6859680B469B000B4499000B44B0FB0E
:10344C00F3F30133C3F30B0343F440437968096886
:10345C001343CB617B681B681B6823F0C0017B683E
:10346C00DA697B681B6A1A437B681B680A431A601B
:10347C007B681B689B6823F4034323F0FF037A6883
:10348C0011697A68D26811437A6812680B439360A9
:10349C007B681B68DB6823F0FF017B685A697B68DB
:1034AC009B691A437B681B680A43DA607B681B685C
:1034BC001A687B681B6842F001021A607B68002264
:1034CC001A647B68202283F83D207B6800221A63F3
:1034DC007B68002283F83E20002318461037BD4637
:1034EC0080BD00BFA08601007F841E00FF083D0048
:1034FC0083DE1B43D34D621080B588B002AFF860F9
:10350C007A601A460B467B8113463B81FFF782FAA1
:10351C007861FB6893F83D30DBB2202B40F0E08003
:10352C007B690093192301227049F86800F058FC5C
:10353C000346002B01D00223D3E0FB6893F83C3008
:10354C00012B01D10223CCE0FB68012283F83C2043
:10355C00FB681B681B6803F00103012B07D0FB6899
:10356C001B681A68FB681B6842F001021A60FB6852
:10357C001B681A68FB681B6822F400621A60FB68FF
:10358C00212283F83D20FB68102283F83E20FB6843
:10359C0000221A64FB687A685A62FB683A895A8579
:1035AC00FB685B8D9AB2FB681A85FB68504ADA623D
:1035BC0079897B693A6AF86800F0C2FA0346002BF5
:1035CC0001D001238DE000233B61FB681B685B6924
:1035DC003B61FB681B689B693B613B6966E07A69F0
:1035EC00396AF86800F0D2FC0346002B0DD0FB685A
:1035FC001B6C042B07D1FB681B681A68FB681B68E3
:10360C0042F400721A6001236BE0FB685B6A1A7863
:10361C00FB681B681A61FB685B6A5A1CFB685A6280
:10362C00FB685B8D9BB2013B9AB2FB685A85FB68C9
:10363C001B8D013B9AB2FB681A85FB681B685B69A2
:10364C0003F00403042B1BD1FB681B8D002B17D03C
:10365C00FB685B6A1A78FB681B681A61FB685B6A1B
:10366C005A1CFB685A62FB685B8D9BB2013B9AB299
:10367C00FB685A85FB681B8D013B9AB2FB681A8567
:10368C007A69396AF86800F0C2FC0346002B0DD049
:10369C00FB681B6C042B07D1FB681B681A68FB6862
:1036AC001B6842F400721A6001231AE0FB681B8D40
:1036BC00002B94D1FB681B681A68FB681B6842F4EA
:1036CC0000721A60FB68202283F83D20FB68002200
:1036DC0083F83E20FB68002283F83C20002300E0A6
:1036EC00022318461837BD4680BD00BF02001000EB
:1036FC000000FFFF80B58CB002AFF8607A601A460C
:10370C000B467B8113463B81FFF784F97862FB689B
:10371C0093F83D30DBB2202B40F00B827B6A009398
:10372C00192301227C49F86800F05AFB0346002B50
:10373C0001D00223FEE1FB6893F83C30012B01D150
:10374C000223F7E1FB68012283F83C20FB681B682D
:10375C001B6803F00103012B07D0FB681B681A6878
:10376C00FB681B6842F001021A60FB681B681A6850
:10377C00FB681B6822F400621A60FB68222283F843
:10378C003D20FB68102283F83E20FB6800221A645F
:10379C00FB687A685A62FB683A895A85FB685B8DCC
:1037AC009AB2FB681A85FB685C4ADA6279897B6A93
:1037BC003A6BF86800F046FA0346002B01D001235F
:1037CC00B8E1FB681B8D002B13D100233B62FB6817
:1037DC001B685B693B62FB681B689B693B623B6ACD
:1037EC00FB681B681A68FB681B6842F400721A605D
:1037FC008CE1FB681B8D012B1BD1FB681B681A68C5
:10380C00FB681B6822F480621A600023FB61FB6872
:10381C001B685B69FB61FB681B689B69FB61FB694F
:10382C00FB681B681A68FB681B6842F400721A601C
:10383C006CE1FB681B8D022B1BD1FB681B681A68A3
:10384C00FB681B6822F480621A60FB681B681A68AC
:10385C00FB681B6842F400621A600023BB61FB68C2
:10386C001B685B69BB61FB681B689B69BB61BB69BF
:10387C004CE1FB681B681A68FB681B6842F48062A9
:10388C001A6000237B61FB681B685B697B61FB68CA
:10389C001B689B697B617B6938E1FB681B8D032B83
:1038AC0000F2F180FB681B8D012B23D17A6A396BF6
:1038BC00F86800F0EDFB0346002B01D0012339E141
:1038CC00FB681B681A69FB685B6AD2B21A70FB68EA
:1038DC005B6A5A1CFB685A62FB681B8D013B9AB2EF
:1038EC00FB681A85FB685B8D9BB2013B9AB2FB6847
:1038FC005A850BE1FB681B8D022B4ED17B6A009322
:10390C003B6B00220649F86800F06AFA0346002B6C
:10391C0008D001230EE100BF020010000000FFFFE1
:10392C0004000100FB681B681A68FB681B6842F402
:10393C0000721A60FB681B681A69FB685B6AD2B27A
:10394C001A70FB685B6A5A1CFB685A62FB681B8D19
:10395C00013B9AB2FB681A85FB685B8D9BB2013BFD
:10396C009AB2FB685A85FB681B681A69FB685B6A2C
:10397C00D2B21A70FB685B6A5A1CFB685A62FB680D
:10398C001B8D013B9AB2FB681A85FB685B8D9BB261
:10399C00013B9AB2FB685A85B8E07B6A00933B6B9B
:1039AC0000226649F86800F01BFA0346002B01D090
:1039BC000123BFE0FB681B681A68FB681B6822F4D4
:1039CC0080621A60FB681B681A69FB685B6AD2B27A
:1039DC001A70FB685B6A5A1CFB685A62FB681B8D89
:1039EC00013B9AB2FB681A85FB685B8D9BB2013B6D
:1039FC009AB2FB685A857B6A00933B6B00224F4955
:103A0C00F86800F0EDF90346002B01D0012391E09A
:103A1C00FB681B681A68FB681B6842F400721A602A
:103A2C00FB681B681A69FB685B6AD2B21A70FB6888
:103A3C005B6A5A1CFB685A62FB681B8D013B9AB28D
:103A4C00FB681A85FB685B8D9BB2013B9AB2FB68E5
:103A5C005A85FB681B681A69FB685B6AD2B21A70DC
:103A6C00FB685B6A5A1CFB685A62FB681B8D013B46
:103A7C009AB2FB681A85FB685B8D9BB2013B9AB2CC
:103A8C00FB685A8542E07A6A396BF86800F000FBF3
:103A9C000346002B01D001234CE0FB681B681A691C
:103AAC00FB685B6AD2B21A70FB685B6A5A1CFB68D3
:103ABC005A62FB681B8D013B9AB2FB681A85FB6846
:103ACC005B8D9BB2013B9AB2FB685A85FB681B6805
:103ADC005B6903F00403042B18D1FB681B681A699B
:103AEC00FB685B6AD2B21A70FB685B6A5A1CFB6893
:103AFC005A62FB681B8D013B9AB2FB681A85FB6806
:103B0C005B8D9BB2013B9AB2FB685A85FB681B8D9F
:103B1C00002B7FF4C2AEFB68202283F83D20FB68AB
:103B2C00002283F83E20FB68002283F83C2000230F
:103B3C0000E0022318462837BD4680BD0400010072
:103B4C0080B588B002AFF8607A603B600B467B8131
:103B5C00FB68DB6A7B617B69082B06D07B69012BD8
:103B6C0003D07B6913F5803F08D1FB681B681A688A
:103B7C00FB681B6842F480721A600BE0FB681B6BDD
:103B8C00122B07D1FB681B681A68FB681B6842F490
:103B9C0080721A603B6800937B6800224FF0011121
:103BAC00F86800F01DF90346002B0DD0FB681B686C
:103BBC001B6803F48073B3F5807F03D1FB684FF46B
:103BCC0000721A64032335E0FB681B69B3F5804F60
:103BDC0008D17B89DBB21A46FB681B6802F0FE0237
:103BEC001A611BE07B89DB11DBB203F00603DBB24D
:103BFC0063F00F03DAB2FB681B681A613B687A68E2
:103C0C000E49F86800F043F90346002B01D001235C
:103C1C0010E07B89DAB2FB681B681A613B687A6832
:103C2C000749F86800F033F90346002B01D0012353
:103C3C0000E0002318461837BD4680BD080001007F
:103C4C000200010080B588B002AFF8607A603B607A
:103C5C000B467B81FB68DB6A7B61FB681B681A681F
:103C6C00FB681B6842F480621A607B69082B06D0E3
:103C7C007B69012B03D07B6913F5803F08D1FB686E
:103C8C001B681A68FB681B6842F480721A600BE0B0
:103C9C00FB681B6B112B07D1FB681B681A68FB6850
:103CAC001B6842F480721A603B6800937B680022A8
:103CBC004FF00111F86800F093F80346002B0DD07B
:103CCC00FB681B681B6803F48073B3F5807F03D11A
:103CDC00FB684FF400721A64032379E0FB681B69DC
:103CEC00B3F5804F08D17B89DBB243F00103DAB224
:103CFC00FB681B681A615FE07B89DB11DBB203F0A8
:103D0C000603DBB263F00F03DAB2FB681B681A61BF
:103D1C003B687A683049F86800F0B9F80346002B24
:103D2C0001D0012354E07B89DAB2FB681B681A616D
:103D3C003B687A682949F86800F0A9F80346002B1B
:103D4C0001D0012344E000233B61FB681B685B69E5
:103D5C003B61FB681B689B693B613B69FB681B68AB
:103D6C001A68FB681B6842F480721A603B68009307
:103D7C007B6800224FF00111F86800F031F803461F
:103D8C00002B0DD0FB681B681B6803F48073B3F524
:103D9C00807F03D1FB684FF400721A64032317E091
:103DAC007B89DB11DBB203F00603DBB263F00E039D
:103DBC00DAB2FB681B681A613B687A680749F868D5
:103DCC0000F065F80346002B01D0012300E000232E
:103DDC0018461837BD4680BD0800010002000100DE
:103DEC0080B584B000AFF860B9603B601346FB71DE
:103DFC0025E03B68B3F1FF3F21D0FEF70BFE0246F6
:103E0C00BB69D31A3A689A4202D33B68002B16D18D
:103E1C00FB6800221A63FB68202283F83D20FB68B4
:103E2C00002283F83E20FB681B6C43F02002FB68E9
:103E3C001A64FB68002283F83C20012323E0BB6852
:103E4C001B0CDBB2012B0DD1FB681B685B69DA43E1
:103E5C00BB6813409BB2002B0CBF01230023DBB2C9
:103E6C001A460CE0FB681B689B69DA43BB6813407D
:103E7C009BB2002B0CBF01230023DBB21A46FB794B
:103E8C009A42B6D0002318461037BD4680BD80B587
:103E9C0084B000AFF860B9607A603B6051E0FB68B9
:103EAC001B685B6903F48063B3F5806F23D1FB68F7
:103EBC001B681A68FB681B6842F400721A60FB6886
:103ECC001B686FF480625A61FB6800221A63FB68FE
:103EDC00202283F83D20FB68002283F83E20FB68FB
:103EEC001B6C43F00402FB681A64FB68002283F825
:103EFC003C20012346E07B68B3F1FF3F21D0FEF765
:103F0C0089FD02463B68D31A7A689A4202D37B68D1
:103F1C00002B16D1FB6800221A63FB68202283F861
:103F2C003D20FB68002283F83E20FB681B6C43F0AD
:103F3C002002FB681A64FB68002283F83C200123F2
:103F4C0020E0BB681B0CDBB2012B0CD1FB681B689F
:103F5C005B69DA43BB6813409BB2002B14BF01238F
:103F6C000023DBB20BE0FB681B689B69DA43BB6880
:103F7C0013409BB2002B14BF01230023DBB2002B98
:103F8C008DD1002318461037BD4680BD80B584B056
:103F9C0000AFF860B9607A602DE0F86800F0CEF8F8
:103FAC000346002B01D001232DE0BB68B3F1FF3F8A
:103FBC0021D0FEF72FFD02467B68D31ABA689A42CD
:103FCC0002D3BB68002B16D1FB6800221A63FB6876
:103FDC00202283F83D20FB68002283F83E20FB68FA
:103FEC001B6C43F02002FB681A64FB68002283F808
:103FFC003C20012307E0FB681B685B6903F080032E
:10400C00802BCAD1002318461037BD4680BD80B521
:10401C0084B000AFF860B9607A602DE0F86800F009
:10402C008DF80346002B01D001232DE0BB68B3F1C2
:10403C00FF3F21D0FEF7EEFC02467B68D31ABA682C
:10404C009A4202D3BB68002B16D1FB6800221A637C
:10405C00FB68202283F83D20FB68002283F83E2079
:10406C00FB681B6C43F02002FB681A64FB6800229F
:10407C0083F83C20012307E0FB681B685B6903F0B5
:10408C000403042BCAD1002318461037BD4680BD4B
:10409C0080B584B000AFF860B9607A6042E0FB682C
:1040AC001B685B6903F01003102B19D1FB681B68AC
:1040BC006FF010025A61FB6800221A63FB68202221
:1040CC0083F83D20FB68002283F83E20FB681A6CC5
:1040DC00FB681A64FB68002283F83C20012329E06A
:1040EC00FEF798FC02467B68D31ABA689A4202D350
:1040FC00BB68002B16D1FB6800221A63FB682022D8
:10410C0083F83D20FB68002283F83E20FB681B6C83
:10411C0043F02002FB681A64FB68002283F83C2001
:10412C00012307E0FB681B685B6903F04003402B2D
:10413C00B5D1002318461037BD4680BD80B483B07E
:10414C0000AF78607B681B685B6903F48063B3F530
:10415C00806F1BD17B681B686FF480625A617B682F
:10416C0000221A637B68202283F83D207B680022A2
:10417C0083F83E207B681B6C43F004027B681A6456
:10418C007B68002283F83C20012300E000231846C2
:10419C000C37BD465DF8047B704780B483B000AF2C
:1041AC00786039607B6893F83D30DBB2202B29D1E5
:1041BC007B68242283F83D207B681B681A687B6827
:1041CC001B6822F001021A607B681B685A6A7B68C4
:1041DC001B6822F010025A627B681B68596A7B6864
:1041EC001B683A680A435A627B681B681A687B68CA
:1041FC001B6842F001021A607B68202283F83D2084
:10420C00002300E0022318460C37BD465DF8047B02
:10421C00704780B485B000AF786039600023FB81B3
:10422C007B6893F83D30DBB2202B2AD17B682422AB
:10423C0083F83D207B681B681A687B681B6822F03A
:10424C0001021A607B681B685B6AFB81FB8923F0A7
:10425C000F03FB813B689AB2FB891343FB817B689C
:10426C001B68FA895A627B681B681A687B681B6832
:10427C0042F001021A607B68202283F83D20002363
:10428C0000E0022318461437BD465DF8047B7047E6
:10429C0080B582B000AF00237B6000233B60204BD5
:1042AC001B6C1F4A43F0805313641D4B1B6C03F0B3
:1042BC0080533B603B681B4B01221A60FEF7AAFB44
:1042CC00786009E0FEF7A6FB02467B68D31AB3F5CB
:1042DC007A7F01D903231FE0134B5B6803F480330F
:1042EC00B3F5803FEED1114B01221A60FEF792FB21
:1042FC00786009E0FEF78EFB02467B68D31AB3F5B3
:10430C007A7F01D9032307E0074B5B6803F4003382
:10431C00B3F5003FEED1002318460837BD4680BDEB
:10432C000038024040000E420070004044000E4233
:10433C0080B586B000AF78607B68002B01D101237B
:10434C0067E27B681B6803F00103002B75D0884B78
:10435C009B6803F00C03042B0CD0854B9B6803F07B
:10436C000C03082B12D1824B5B6803F48003B3F56A
:10437C00800F0BD17E4B1B6803F40033002B5BD0FA
:10438C007B685B68002B57D1012342E27B685B683A
:10439C00B3F5803F06D1764B1B68754A43F48033E6
:1043AC0013601DE07B685B68B3F5A02F0CD1704BDC
:1043BC001B686F4A43F4802313606D4B1B686C4A77
:1043CC0043F4803313600BE0694B1B68684A23F499
:1043DC0080331360664B1B68654A23F4802313609B
:1043EC007B685B68002B13D0FEF714FB386108E088
:1043FC00FEF710FB02463B69D31A642B01D9032349
:10440C0007E25B4B1B6803F40033002BF0D014E085
:10441C00FEF700FB386108E0FEF7FCFA02463B6948
:10442C00D31A642B01D90323F3E1514B1B6803F41A
:10443C000033002BF0D100E000BF7B681B6803F059
:10444C000203002B63D04A4B9B6803F00C03002B38
:10445C000BD0474B9B6803F00C03082B1CD1444B2F
:10446C005B6803F48003002B16D1414B1B6803F0EF
:10447C000203002B05D07B68DB68012B01D00123E4
:10448C00C7E13B4B1B6823F0F8027B681B69DB0020
:10449C00374913430B603AE07B68DB68002B20D074
:1044AC00344B01221A60FEF7B5FA386108E0FEF7CA
:1044BC00B1FA02463B69D31A022B01D90323A8E1B6
:1044CC002B4B1B6803F00203002BF0D0284B1B680E
:1044DC0023F0F8027B681B69DB00254913430B6052
:1044EC0015E0244B00221A60FEF794FA386108E0BC
:1044FC00FEF790FA02463B69D31A022B01D903232B
:10450C0087E11B4B1B6803F00203002BF0D17B6887
:10451C001B6803F00803002B36D07B685B69002B0B
:10452C0016D0154B01221A60FEF774FA386108E0B8
:10453C00FEF770FA02463B69D31A022B01D903230A
:10454C0067E10B4B5B6F03F00203002BF0D01BE019
:10455C00094B00221A60FEF75DFA38610EE0FEF797
:10456C0059FA02463B69D31A022B07D9032350E1AF
:10457C000038024000004742800E4742884B5B6F78
:10458C0003F00203002BEAD17B681B6803F00403E1
:10459C00002B00F097800023FB75814B1B6C03F004
:1045AC008053002B0FD10023BB607D4B1B6C7C4ACE
:1045BC0043F0805313647A4B1B6C03F08053BB6045
:1045CC00BB680123FB75774B1B6803F48073002BCE
:1045DC0018D1744B1B68734A43F480731360FEF755
:1045EC0019FA386108E0FEF715FA02463B69D31A4E
:1045FC00022B01D903230CE16A4B1B6803F4807373
:10460C00002BF0D07B689B68012B06D1644B1B6F91
:10461C00634A43F0010313671CE07B689B68052B1E
:10462C000CD15F4B1B6F5E4A43F0040313675C4B6A
:10463C001B6F5B4A43F0010313670BE0584B1B6F76
:10464C00574A23F001031367554B1B6F544A23F051
:10465C00040313677B689B68002B15D0FEF7DAF90F
:10466C0038610AE0FEF7D6F902463B69D31A41F2EB
:10467C008832934201D90323CBE0494B1B6F03F0E3
:10468C000203002BEED014E0FEF7C4F938610AE007
:10469C00FEF7C0F902463B69D31A41F288329342C5
:1046AC0001D90323B5E03E4B1B6F03F00203002B33
:1046BC00EED1FB7D012B05D1394B1B6C384A23F015
:1046CC00805313647B689B69002B00F0A180344BF2
:1046DC009B6803F00C03082B5CD07B689B69022B56
:1046EC0041D1314B00221A60FEF794F9386108E091
:1046FC00FEF790F902463B69D31A022B01D903232A
:10470C0087E0274B1B6803F00073002BF0D17B680C
:10471C00DA697B681B6A1A437B685B6A9B011A43E4
:10472C007B689B6A5B08013B1B041A437B68DB6A52
:10473C001B061B4913434B601B4B01221A60FEF7EF
:10474C0069F9386108E0FEF765F902463B69D31A4E
:10475C00022B01D903235CE0114B1B6803F000739F
:10476C00002BF0D054E0104B00221A60FEF752F9E7
:10477C00386108E0FEF74EF902463B69D31A022B6A
:10478C0001D9032345E0064B1B6803F00073002B93
:10479C00F0D13DE07B689B69012B07D1012338E008
:1047AC000038024000700040600047421B4B5B68C1
:1047BC00FB607B689B69012B28D0FB6803F48002AB
:1047CC007B68DB699A4221D1FB6803F03F027B686E
:1047DC001B6A9A421AD1FA6847F6C07313407A687A
:1047EC00526A9201934211D1FB6803F440327B6808
:1047FC009B6A5B08013B1B049A4207D1FB6803F0E0
:10480C0070627B68DB6A1B069A4201D0012300E0D0
:10481C00002318461837BD4680BD00BF0038024043
:10482C0080B584B000AF786039607B68002B01D113
:10483C000123CCE0684B1B6803F00F033A689A42E3
:10484C000CD9654B3A68D2B21A70634B1B6803F0F3
:10485C000F033A689A4201D00123B8E07B681B68C9
:10486C0003F00203002B20D07B681B6803F00403C9
:10487C00002B05D0594B9B68584A43F4E053936086
:10488C007B681B6803F00803002B05D0534B9B6817
:10489C00524A43F460439360504B9B6823F0F00200
:1048AC007B689B684D4913438B607B681B6803F0E6
:1048BC000103002B44D07B685B68012B07D1474B6D
:1048CC001B6803F40033002B19D101237FE07B68B4
:1048DC005B68022B03D07B685B68032B07D13F4BD3
:1048EC001B6803F00073002B09D101236FE03B4BD5
:1048FC001B6803F00203002B01D1012367E0374B47
:10490C009B6823F003027B685B68344913438B601C
:10491C00FEF780F8F8600AE0FEF77CF80246FB68C8
:10492C00D31A41F28832934201D903234FE02B4B27
:10493C009B6803F00C027B685B689B009A42EBD18E
:10494C00254B1B6803F00F033A689A420CD2224B9A
:10495C003A68D2B21A70204B1B6803F00F033A6806
:10496C009A4201D0012332E07B681B6803F00403F8
:10497C00002B08D0194B9B6823F4E0527B68DB6852
:10498C00164913438B607B681B6803F00803002BEC
:10499C0009D0124B9B6823F460427B681B69DB00D7
:1049AC000E4913438B6000F021F802460B4B9B68B9
:1049BC001B0903F00F030A49CB5C22FA03F3094AE3
:1049CC001360094B1B681846FDF7E0FF00231846DF
:1049DC001037BD4680BD00BF003C0240003802408D
:1049EC00D4620008180000201C0000202DE9B04FF4
:1049FC0094B000AF00237B640023FB6400233B6472
:104A0C000023BB64794B9B6803F00C03082B0DD07F
:104A1C00082B00F2E180002B02D0042B03D0DBE04A
:104A2C00734BBB64DBE0734BBB64D8E06F4B5B68D0
:104A3C0003F03F037B646D4B5B6803F48003002B36
:104A4C0063D06A4B5B689B090022BB63FA63BB6B48
:104A5C00C3F308033B6300237B63D7E90C45224671
:104A6C002B464FF000004FF00001590141EAD26192
:104A7C00500102460B462146511A3961294663EB17
:104A8C0001037B614FF000024FF00003D7E904AB48
:104A9C0059468B01514643EA916351468A0151466E
:104AAC00B2EB0108594663EB01094FF000024FF0DD
:104ABC0000034FEAC90343EA58734FEAC802904611
:104ACC009946234618EB0303BB602B4649EB0303C3
:104ADC00FB604FF000024FF00003D7E90245294676
:104AEC004B02214643EAD15321464A02104619464D
:104AFC007B6C0022BB62FA62D7E90A23FBF770FBDE
:104B0C0002460B461346FB6458E0384B5B689B0926
:104B1C00002218461146C0F308033B6200237B6257
:104B2C00D7E9088942464B464FF000004FF0000190
:104B3C00590141EAD261500102460B464146B2EBA3
:104B4C00010A494663EB010B4FF000024FF00003E2
:104B5C004FEA8B1343EA9A634FEA8A12B2EB0A04C8
:104B6C0063EB0B054FF000024FF00003EB0043EA40
:104B7C005473E20014461D464346E3183B604B4613
:104B8C0045EB03037B604FF000024FF00003D7E9C5
:104B9C00004529468B02214643EA915321468A025D
:104BAC00104619467B6C0022BB61FA61D7E90623DB
:104BBC00FBF716FB02460B461346FB640B4B5B687C
:104BCC001B0C03F0030301335B003B64FA6C3B6C7E
:104BDC00B2FBF3F3BB6402E0054BBB6400BFBB6CE0
:104BEC0018465037BD46BDE8B08F00BF00380240B4
:104BFC000024F40000127A0080B400AF034B1B6851
:104C0C001846BD465DF8047B704700BF18000020B5
:104C1C0080B500AFFFF7F0FF0246054B9B689B0A7F
:104C2C0003F007030349CB5C22FA03F3184680BD5B
:104C3C0000380240E462000880B582B000AF7860B2
:104C4C007B68002B01D101237BE07B685B6A002B26
:104C5C0008D17B685B68B3F5827F09D07B68002242
:104C6C00DA6105E07B6800221A617B6800225A61D8
:104C7C007B6800229A627B6893F85130DBB2002B80
:104C8C0006D17B68002283F850207868FDF752FD2E
:104C9C007B68022283F851207B681B681A687B684A
:104CAC001B6822F040021A607B685B6803F4827216
:104CBC007B689B6803F404431A437B68DB6803F44A
:104CCC0000631A437B681B6903F002031A437B6879
:104CDC005B6903F001031A437B689B6903F400735F
:104CEC001A437B68DB6903F038031A437B681B6A41
:104CFC0003F0800342EA03017B689B6A03F40052D1
:104D0C007B681B680A431A607B689B691B0C03F069
:104D1C0004017B685B6A03F010027B681B680A4322
:104D2C005A607B681B68DA697B681B6822F4006236
:104D3C00DA617B6800225A657B68012283F8512076
:104D4C00002318460837BD4680BD80B582B000AF41
:104D5C0078607B68002B01D101231AE07B6802226A
:104D6C0083F851207B681B681A687B681B6822F0EB
:104D7C0040021A607868FDF725FD7B6800225A65B1
:104D8C007B68002283F851207B68002283F8502036
:104D9C00002318460837BD4680BD80B588B000AFEB
:104DAC00F860B9603B601346FB800023FB77FB681F
:104DBC0093F85030012B01D1022326E1FB6801222C
:104DCC0083F85020FDF726FEB861FB88FB82FB6858
:104DDC0093F85130DBB2012B02D00223FB770BE1AD
:104DEC00BB68002B02D0FB88002B02D10123FB7780
:104DFC0002E1FB68032283F85120FB6800225A650C
:104E0C00FB68BA681A63FB68FA889A86FB68FA88AA
:104E1C00DA86FB6800229A63FB6800229A87FB689B
:104E2C000022DA87FB6800225A64FB6800221A64AD
:104E3C00FB689B68B3F5004F0FD1FB681B681A68C1
:104E4C00FB681B6822F040021A60FB681B681A683A
:104E5C00FB681B6842F480421A60FB681B681B6885
:104E6C0003F04003402B07D0FB681B681A68FB68F3
:104E7C001B6842F040021A60FB68DB68B3F5006FF8
:104E8C004BD1FB685B68002B02D0FB8A012B3ED117
:104E9C00FB681B6B1A88FB681B68DA60FB681B6B72
:104EAC009A1CFB681A63FB68DB8E9BB2013B9AB2BF
:104EBC00FB68DA862BE0FB681B689B6803F0020337
:104ECC00022B12D1FB681B6B1A88FB681B68DA601B
:104EDC00FB681B6B9A1CFB681A63FB68DB8E9BB22E
:104EEC00013B9AB2FB68DA8611E0FDF793FD0246AE
:104EFC00BB69D31A3A689A4203D83B68B3F1FF3FB7
:104F0C0002D13B68002B02D10323FB7774E0FB68D2
:104F1C00DB8E9BB2002BCED14CE0FB685B68002B88
:104F2C0002D0FB8A012B40D1FB681A6BFB681B6813
:104F3C000C3312781A70FB681B6B5A1CFB681A63D3
:104F4C00FB68DB8E9BB2013B9AB2FB68DA862CE0E5
:104F5C00FB681B689B6803F00203022B13D1FB68F0
:104F6C001A6BFB681B680C3312781A70FB681B6B8E
:104F7C005A1CFB681A63FB68DB8E9BB2013B9AB22E
:104F8C00FB68DA8611E0FDF745FD0246BB69D31AD2
:104F9C003A689A4203D83B68B3F1FF3F02D13B68B1
:104FAC00002B02D10323FB7726E0FB68DB8E9BB240
:104FBC00002BCDD1BA693968F86800F0B3F8034614
:104FCC00002B02D0FB6820225A65FB689B68002BE3
:104FDC000AD100233B61FB681B68DB683B61FB6803
:104FEC001B689B683B613B69FB685B6D002B02D0C7
:104FFC000123FB7700E000BFFB68012283F85120FE
:10500C00FB68002283F85020FB7F18462037BD46F2
:10501C0080BD000080B588B000AFF860B9603B601F
:10502C001346FB71FDF7F6FC0246BB6A9B1A3A6805
:10503C001344FB61FDF7EEFCB861394B1B685B0157
:10504C001B0DFA6902FB03F37B6154E03B68B3F17F
:10505C00FF3F50D0FDF7DEFC0246BB69D31AFA695C
:10506C009A4202D9FB69002B3DD1FB681B685A6838
:10507C00FB681B6822F0E0025A60FB685B68B3F5C2
:10508C00827F11D1FB689B68B3F5004F04D0FB689D
:10509C009B68B3F5806F07D1FB681B681A68FB68C7
:1050AC001B6822F040021A60FB689B6AB3F5005F34
:1050BC000FD1FB681B681A68FB681B6822F400524E
:1050CC001A60FB681B681A68FB681B6842F4005284
:1050DC001A60FB68012283F85120FB68002283F8D8
:1050EC005020032317E07B69002B01D10023FB61C7
:1050FC007B69013B7B61FB681B689A68BB6813404A
:10510C00BA689A420CBF01230023DBB21A46FB7922
:10511C009A429BD1002318462037BD4680BD00BF64
:10512C001800002080B588B002AFF860B9607A60D2
:10513C001B4B1B681B4AA2FB03235B0D4FF47A72BB
:10514C0002FB03F37B61FB685B68B3F5827F12D1D2
:10515C007B680093BB6800228021F868FFF75AFF38
:10516C000346002B16D0FB685B6D43F02002FB68F6
:10517C005A6503230FE07B69002B0AD07B69013B46
:10518C007B61FB681B689B6803F08003802BF2D06B
:10519C0000E000BF002318461837BD4680BD00BF95
:1051AC0018000020819F5E1680B582B000AF786039
:1051BC007B68002B01D1012341E07B6893F83D30E3
:1051CC00DBB2002B06D17B68002283F83C20786888
:1051DC00FDF716FB7B68022283F83D207B681A687A
:1051EC007B6804331946104600F096FA7B6801225E
:1051FC0083F846207B68012283F83E207B680122DD
:10520C0083F83F207B68012283F840207B680122D1
:10521C0083F841207B68012283F842207B680122BD
:10522C0083F843207B68012283F844207B680122A9
:10523C0083F845207B68012283F83D200023184623
:10524C000837BD4680BD000080B485B000AF7860E3
:10525C007B6893F83D30DBB2012B01D001234EE08B
:10526C007B68022283F83D207B681B68DA687B68C8
:10527C001B6842F00102DA607B681B68234A934288
:10528C0022D07B681B68B3F1804F1DD07B681B68F4
:10529C001F4A934218D07B681B681E4A934213D056
:1052AC007B681B681C4A93420ED07B681B681B4AA8
:1052BC00934209D07B681B68194A934204D07B68DF
:1052CC001B68184A934211D17B681B689B6803F0DA
:1052DC000703FB60FB68062B10D07B681B681A6801
:1052EC007B681B6842F001021A6007E07B681B6850
:1052FC001A687B681B6842F001021A60002318468A
:10530C001437BD465DF8047B704700BF00000140B8
:10531C000004004000080040000C00400004014064
:10532C00004001400018004080B582B000AF7860AA
:10533C007B681B681B6903F00203022B22D17B687C
:10534C001B68DB6803F00203022B1BD17B681B6814
:10535C006FF002021A617B6801221A777B681B6866
:10536C009B6903F00303002B03D0786800F0B5F9B8
:10537C0005E0786800F0A7F9786800F0B8F97B6868
:10538C0000221A777B681B681B6903F00403042B4B
:10539C0022D17B681B68DB6803F00403042B1BD150
:1053AC007B681B686FF004021A617B6802221A7713
:1053BC007B681B689B6903F44073002B03D07868EF
:1053CC0000F08BF905E0786800F07DF9786800F062
:1053DC008EF97B6800221A777B681B681B6903F0C7
:1053EC000803082B22D17B681B68DB6803F00803D9
:1053FC00082B1BD17B681B686FF008021A617B6855
:10540C0004221A777B681B68DB6903F00303002B0B
:10541C0003D0786800F061F905E0786800F053F982
:10542C00786800F064F97B6800221A777B681B6847
:10543C001B6903F01003102B22D17B681B68DB68FF
:10544C0003F01003102B1BD17B681B686FF010024C
:10545C001A617B6808221A777B681B68DB6903F486
:10546C004073002B03D0786800F037F905E07868BA
:10547C0000F029F9786800F03AF97B6800221A7775
:10548C007B681B681B6903F00103012B0ED17B6841
:10549C001B68DB6803F00103012B07D17B681B68D9
:1054AC006FF001021A617868FCF756FA7B681B688A
:1054BC001B6903F08003802B0ED17B681B68DB68B3
:1054CC0003F08003802B07D17B681B686FF0800290
:1054DC001A61786800F0E0FA7B681B681B6903F0BE
:1054EC004003402B0ED17B681B68DB6803F0400344
:1054FC00402B07D17B681B686FF040021A617868FB
:10550C0000F0FFF87B681B681B6903F02003202B5D
:10551C000ED17B681B68DB6803F02003202B07D1BE
:10552C007B681B686FF020021A61786800F0AAFA99
:10553C0000BF0837BD4680BD80B584B000AF786031
:10554C0039600023FB737B6893F83C30012B01D14D
:10555C000223B4E07B68012283F83C207B680222A2
:10556C0083F83D207B681B689B68BB60BB6823F09D
:10557C007703BB60BB6823F47F43BB607B681B680D
:10558C00BA689A603B681B68B3F5005F3ED0B3F510
:10559C00005F00F28780B3F5805F00F08680B3F582
:1055AC00805F7FD8702B1AD0702B7BD8602B50D09B
:1055BC00602B77D8502B3CD0502B73D8402B58D025
:1055CC00402B6FD8302B64D0302B6BD8202B60D075
:1055DC00202B67D8002B5CD0102B5AD062E07B6854
:1055EC0018683B6899683B685A683B68DB6800F050
:1055FC00ADF97B681B689B68BB60BB6843F07703A5
:10560C00BB607B681B68BA689A604FE07B6818685F
:10561C003B6899683B685A683B68DB6800F096F910
:10562C007B681B689A687B681B6842F480429A60AE
:10563C003CE07B6818683B6859683B68DB681A4635
:10564C0000F00AF97B681B685021184600F063F9DA
:10565C002CE07B6818683B6859683B68DB681A4625
:10566C0000F029F97B681B686021184600F053F99B
:10567C001CE07B6818683B6859683B68DB681A4615
:10568C0000F0EAF87B681B684021184600F043F9EB
:10569C000CE07B681A683B681B681946104600F0E2
:1056AC003AF903E00123FB7300E000BF7B680122A1
:1056BC0083F83D207B68002283F83C20FB7B184656
:1056CC001037BD4680BD80B483B000AF786000BF9A
:1056DC000C37BD465DF8047B704780B483B000AFD7
:1056EC00786000BF0C37BD465DF8047B704780B412
:1056FC0083B000AF786000BF0C37BD465DF8047B0B
:10570C00704780B483B000AF786000BF0C37BD46E3
:10571C005DF8047B7047000080B485B000AF786002
:10572C0039607B681B68FB607B68404A934213D0EE
:10573C007B68B3F1804F0FD07B683D4A93420BD00E
:10574C007B683C4A934207D07B683B4A934203D028
:10575C007B683A4A934208D1FB6823F07003FB60E4
:10576C003B685B68FA681343FB607B682F4A934283
:10577C002BD07B68B3F1804F27D07B682C4A9342A7
:10578C0023D07B682B4A93421FD07B682A4A9342D2
:10579C001BD07B68294A934217D07B68284A9342D6
:1057AC0013D07B68274A93420FD07B68264A9342DA
:1057BC000BD07B68254A934207D07B68244A9342DE
:1057CC0003D07B68234A934208D1FB6823F44073CF
:1057DC00FB603B68DB68FA681343FB60FB6823F0F3
:1057EC0080023B685B691343FB607B68FA681A6054
:1057FC003B689A687B68DA623B681A687B689A62D5
:10580C007B680A4A934203D07B680C4A934203D1CB
:10581C003B681A697B681A637B6801225A6100BF76
:10582C001437BD465DF8047B704700BF0000014093
:10583C000004004000080040000C0040000401403F
:10584C000040014000440140004801400018004065
:10585C00001C00400020004080B487B000AFF8600E
:10586C00B9607A60FB681B6A7B61FB681B6A23F07A
:10587C000102FB681A62FB689B693B613B6923F080
:10588C00F0033B617B681B013A6913433B617B6905
:10589C0023F00A037B617A69BB6813437B61FB6865
:1058AC003A699A61FB687A691A6200BF1C37BD4677
:1058BC005DF8047B704780B487B000AFF860B960C6
:1058CC007A60FB681B6A23F01002FB681A62FB68A3
:1058DC009B697B61FB681B6A3B617B6923F47043AA
:1058EC007B617B681B037A6913437B613B6923F003
:1058FC00A0033B61BB681B013A6913433B61FB6826
:10590C007A699A61FB683A691A6200BF1C37BD4616
:10591C005DF8047B704780B485B000AF7860396067
:10592C007B689B68FB60FB6823F07003FB603A6844
:10593C00FB68134343F00703FB607B68FA689A60CB
:10594C0000BF1437BD465DF8047B704780B487B048
:10595C0000AFF860B9607A603B60FB689B687B6164
:10596C007B6923F47F437B613B681A027B681A4393
:10597C00BB6813437A6913437B61FB687A699A604D
:10598C0000BF1C37BD465DF8047B704780B485B002
:10599C0000AF786039607B6893F83C30012B01D103
:1059AC0002235AE07B68012283F83C207B680222A8
:1059BC0083F83D207B681B685B68FB607B681B6819
:1059CC009B68BB60FB6823F07003FB603B681B6843
:1059DC00FA681343FB607B681B68FA685A607B6843
:1059EC001B68214A934222D07B681B68B3F1804F1D
:1059FC001DD07B681B681D4A934218D07B681B68BE
:105A0C001B4A934213D07B681B681A4A93420ED0F0
:105A1C007B681B68184A934209D07B681B68174A3D
:105A2C00934204D07B681B68154A93420CD1BB6827
:105A3C0023F08003BB603B685B68BA681343BB60B0
:105A4C007B681B68BA689A607B68012283F83D20EA
:105A5C007B68002283F83C20002318461437BD468F
:105A6C005DF8047B704700BF00000140000400405B
:105A7C0000080040000C00400004014000400140C0
:105A8C000018004080B483B000AF786000BF0C37C2
:105A9C00BD465DF8047B704780B483B000AF78607E
:105AAC0000BF0C37BD465DF8047B704702440346CB
:105ABC00934200D1704703F8011BF9E770B50D4D07
:105ACC000D4C641BA4100026A64209D10B4D0C4CA6
